{
  "contractName": "NewContract",
  "abi": [
    {
      "constant": true,
      "inputs": [
        {
          "name": "x",
          "type": "uint256"
        },
        {
          "name": "y",
          "type": "uint256"
        }
      ],
      "name": "sum",
      "outputs": [
        {
          "name": "",
          "type": "uint256"
        }
      ],
      "payable": false,
      "stateMutability": "pure",
      "type": "function"
    },
    {
      "constant": true,
      "inputs": [
        {
          "name": "x",
          "type": "uint256"
        },
        {
          "name": "y",
          "type": "uint256"
        }
      ],
      "name": "sub",
      "outputs": [
        {
          "name": "",
          "type": "uint256"
        }
      ],
      "payable": false,
      "stateMutability": "pure",
      "type": "function"
    }
  ],
  "bytecode": "0x608060405234801561001057600080fd5b5060da8061001f6000396000f3fe6080604052348015600f57600080fd5b5060043610604e577c01000000000000000000000000000000000000000000000000000000006000350463b67d77c581146053578063cad0899b146085575b600080fd5b607360048036036040811015606757600080fd5b508035906020013560a5565b60408051918252519081900360200190f35b607360048036036040811015609957600080fd5b508035906020013560aa565b900390565b019056fea165627a7a72305820e8cda95ae43a33f8c1dda9577c29ee6ea6d0079c48b9a70d03757b2246d083c50029",
  "source": "pragma solidity 0.5.6;\n\ncontract NewContract{\n\n    // unsafe functions\n    function sum(uint256 x, uint256 y)\n        public\n        pure\n        returns(uint256)\n    {\n        return x + y;\n    }\n\n    function sub(uint256 x, uint256 y)\n        public\n        pure\n        returns(uint256)\n    {\n        return x - y;\n    }\n}",
  "sourcePath": "/Users/ahmed/PycharmProjects/testProject/contracts/NewContract.sol",
  "compiler": {
    "name": "solc",
    "version": "0.5.6+commit.b259423e.Emscripten.clang"
  },
  "schemaVersion": "3.0.2",
  "updatedAt": "2019-05-29T11:50:15.773Z",
  "devdoc": {
    "methods": {}
  },
  "userdoc": {
    "methods": {}
  }
}